:020000040040BA
:10000000C0B844204D954000918B4000A58B400026
:10001000B98B4000CD8B4000E18B40000000000018
:10002000000000000000000000000000A1324100BC
:10003000F58B40000000000041334100A533410032
:100040003997400039974000399740003997400070
:10005000C97D4000399740003997400039974000EA
:10006000399740000000000015A2400025A2400082
:1000700035A2400091ED400039974000399740008B
:1000800045A2400055A240003997400039974000F2
:100090003997400039974000399740003997400020
:1000A000097E400039974000399740003997400059
:1000B0003997400039974000399740003997400000
:1000C0003997400039974000E5CD4000000000001E
:1000D0000000000000000000000000000000000020
:1000E00039974000F9F040003997400039974000B7
:1000F00039974000399740003997400039974000C0
:1001000039974000399740003997400039974000AF
:1001100039974000000000000000000000000000CF
:1001200039974000399740003D9C40003997400086
:10013000399740000000000039974000399740008F
:1001400010B5054C237833B9044B13B10448AFF311
:1001500000800123237010BD4014402000000000E7
:100160004001400008B5034B1BB103490348AFF3FE
:10017000008008BD00000000441440204001400001
:1001800010B59FED130A134C82B00120A0479FEDDC
:10019000100A0220A0479FED0E0A0320A0470E4B35
:1001A00098470E4A00236846CDE9003390470099EE
:1001B0000B4B01A898470B4B009898470A4B0098A7
:1001C00098470A4BDDE900019847094B9847FEE73D
:1001D00000000000858A4000DD7A4000A15D4000FB
:1001E000A52E4000BD0C4000DD2B4000C55E400048
:1001F000291F4100044B036010B44023034C0C60E2
:100200005DF8044B13607047201F4020781F40208A
:10021000044B036010B48023034C0C605DF8044B66
:1002200013607047C81E40207820402000B583B07E
:10023000002301934FF0800372B683F31188BFF35C
:100240006F8FBFF34F8F62B60549064B0122112015
:100250009847019B002BFCD003B05DF804FB00BF66
:1002600038C74100A57D4000004B184791784000F9
:1002700000B583B04FF0800372B683F31188BFF3EB
:100280006F8FBFF34F8F62B6054B12209847002344
:100290000193019B034B03B05DF804EB184700BFCB
:1002A0007979400091784000704700BF00B583B075
:1002B000002300930191054B019A9847009B002B66
:1002C000FCD0034B03B05DF804EB1847C532410086
:1002D0000D3341006020704738B554220C46054666
:1002E000054B01F10C000021984700202C60C4E967
:1002F0000000A06038BD00BF15694100016000200A
:10030000704700BF38B5002205460C461846182134
:10031000034B9847034B286098472060002038BD66
:10032000251541008576400001EB410110B500EB39
:100330008104C4E90423024B9847E060002010BD0B
:1003400079274100014B8968184700BFC10A400066
:10035000C86810B50C4608B1024B98470020E06011
:1003600010BD00BF010A40002DE9F0430D4687B0E3
:1003700049680191013114460E9E03930022294BD6
:1003800069600094074604960292984704EB440380
:1003900005EB83030590D3F81080B8F1000F23D04C
:1003A00062000FB1019B3B60224405EB82041E4BAF
:1003B000D4F814900A21484698470646A0B91B4F26
:1003C000334640460A226946B847194B0746484615
:1003D0009847DFB1012F0FD00398E8B1154B98472C
:1003E000022007B0BDE8F083039808B1114B98478D
:1003F0000A2007B0BDE8F0832968E0680E4C3A4651
:100400003346A047304607B0BDE8F083039838B1C3
:10041000084B98470B20ECE7022007B0BDE8F083BB
:100420000B20E6E7792741005576400095154100FD
:100430006D764000010A40003D2A4100F8B501EB0D
:10044000410500EB85051160064628691446C0B1D8
:10045000144F00234FF4FA722146B847C8B101285F
:1004600007D0E06808B1104B98470023E3600220F2
:10047000F8BD02463168E8680C4C0023A047002014
:10048000F8BDD06808B1084B98470023E3600A2004
:10049000F8BDE06808B1044B98470023E3600B20E7
:1004A000F8BD00BF95154100010A40003D2A4100FA
:1004B000F0B5082285B004460D460B4B81680DEB64
:1004C0000200984768B9029B084F1E6902233360F7
:1004D0000823736003900093EAB2029B214603A8AD
:1004E000B84705B0F0BD00BFC10A40006903400035
:1004F000F0B585B004460E46154681680B4B0C22BC
:1005000002A8984778B9029B094F1B6921469D6054
:100510000C240325C3E90054F2B20390029B00941B
:100520000DEB0400B84705B0F0BD00BFC10A4000A4
:1005300069034000F0B585B004460E461546816853
:100540000B4B0C2202A8984778B9029B094F1B69F4
:1005500021469D600C240425C3E90054F2B20390A7
:10056000029B00940DEB0400B84705B0F0BD00BF3E
:10057000C10A400069034000F0B585B004460E464C
:10058000154681680B4B0C2202A8984778B9029B4C
:10059000094F1B6921469D600C241425C3E90054B2
:1005A000F2B20390029B00940DEB0400B84705B033
:1005B000F0BD00BFC10A4000690340002DE9F04FC3
:1005C00085B0174CDDF83CA00AF1180B05460F4624
:1005D000914681685A4602A89846A0470446D0B979
:1005E000029A104B1669152106F118005246316027
:1005F000C6E9038A0E99C6F804B0C6F8089070617F
:100600009847736800932946029B074D0394FAB2FA
:1006100003A8A8470446204605B0BDE8F08F00BFF8
:10062000C10A400009674100690340002DE9F04319
:10063000C5B04CAC04AD54F804EBDFF8449003941F
:1006400084460E4617469846724623464FF48071FC
:1006500028466446C847084B284698478446434680
:100660003A46314600952046CDF804C0034CA047D9
:1006700045B0BDE8F08300BF416F4100BD054000BB
:10068000119A41002DE9F04F85B0184CDDF83CB0CF
:100690000BF10605AD0006468846924681682A465B
:1006A00002A89946A0470446D8B9029A104B176988
:1006B00018217818A5F11802C7E9015A3960C7F85E
:1006C0000C900E99C7F810B0786198477B6800933A
:1006D000084D029B03945FFA88F2314603A8A847AD
:1006E0000446204605B0BDE8F08F00BFC10A4000B7
:1006F00009674100690340002DE9F04D84B00746C9
:100700000D9D1A4E05F118048846934681682246CD
:1007100002A89A46B04720BB029B1E691923746049
:1007200006F11804C6E902BA356133607461DDB1BF
:100730000C9B0C9A013B5919C2F1010000E074694D
:10074000C21813F8015FA5548B42F8D17368009367
:1007500000200390029B064C5FFA88F2394603A8FA
:10076000A04704B0BDE8F08D1823F0E7C10A4000AF
:10077000690340002DE9F04F85B0174CDDF83CA02F
:100780000AF1180B05460F46914681685A4602A8A1
:100790009846A0470446D0B9029A104B16691A2110
:1007A00006F1180052463160C6E9038A0E99C6F870
:1007B00004B0C6F8089070619847736800932946A2
:1007C000029B074D0394FAB203A8A84704462046AB
:1007D00005B0BDE8F08F00BFC10A400009674100C5
:1007E000690340002DE9F043C5B04CAC04AD54F8AA
:1007F00004EBDFF84490039484460E46174698466F
:10080000724623464FF4807128466446C847084B19
:1008100028469847844643463A4631460095204646
:10082000CDF804C0034CA04745B0BDE8F08300BF3D
:10083000416F410075074000119A41002DE9F04FCA
:1008400085B0184CDDF83CB00BF10605AD0006464E
:100850008846924681682A4602A89946A0470446DF
:10086000E0B9029A104B17691B2107F11800A5F196
:100870001802C7E9015A3960C7F80C900E99C7F8F9
:1008800010B0786198477B680093084D029B0394F1
:100890005FFA88F2314603A8A8470446204605B00F
:1008A000BDE8F08FC10A40000967410069034000BC
:1008B000014BC9B2184700BF3D0440002DE9F0418B
:1008C00003F10B068846B600114604460A4D32462F
:1008D00040461F46A84768B9D8F800301B69236016
:1008E000DF6023681C221A6023685E60236803F1BE
:1008F0002C021A61BDE8F08145034000143001FB71
:1009000000F02C30704700BF2DE9F043994683B0CA
:1009100001F12C030026C1E909634A61C1E9069986
:10092000194BC1F820900D46019280469847019AD4
:100930002860B9F1000F24D0AF6A02F1140C07F15E
:100940001403C7E90323BE603D6061460AE0A86A5C
:10095000441804F11403A7604550E2602361614428
:100960007C6027460136B145F1D100207860AB6A42
:10097000C5E90300C5E90137C8F8005003B0BDE878
:10098000F083C9F80490FFDE8576400038B5CB6966
:10099000002B29D00C460546174B20680A219847A2
:1009A00010BBE369EBB163682B605B68636003B104
:1009B0009860636A2A68CBB9E26093602B68236110
:1009C00000225A60D4E90732013B9342E36138BF09
:1009D0002362636A2068094A0133636290470020FA
:1009E00038BD2068054B98470A2038BD23699360BD
:1009F0002A685A60E2E700BF557640006D764000F5
:100A000038B50468194B05460A212068984728BB69
:100A1000E269636A0132013BE2616362D5E9012365
:100A200003B15A6002B19360E168A94208BFE26075
:100A30002269AA4208BF2361A3682BB1AA6812B138
:100A4000AB60A36803B15D600023A5606B60636861
:100A500033B12068064B9847002038BD012038BDCF
:100A60002068034B656098470020F6E75576400004
:100A70006D7640001820704703460020086019601A
:100A8000704700BF70B50E68042E82B013D80C46B4
:100A900005461146094E1A4601A8069BB04740B9C3
:100AA0002368019A04EB830101334A60236005B196
:100AB0002A6002B070BD0A2002B070BD0909400072
:100AC000F0B50F68E7B1D1F804E0012FDEF814C0EB
:100AD0000FD901F10803012453F8046B7569AA4288
:100AE00004F1010403D865453CBFAC46B646A742B5
:100AF000F2D1624504D87146024BBDE8F040184778
:100B00000120F0BD8D0940002DE9F04F2A4B83B044
:100B100098472A4B01900DF1030098479DF8033048
:100B20001B2B3CD0264D274CDFF8BCB0264FDFF8FE
:100B3000BCA000260FF27809D9E9008996B1234BB1
:100B400053F8042B2AB1D168002914DBD16801398C
:100B5000D1609F42F4D11E4B9847642101A8D04731
:100B6000002EECD1D847894508BF8045E7D2194B04
:100B700098470126E3E7184EB7EE000A0120B04778
:100B80009FED160A0220B0479FED140A0320B047DC
:100B9000134901221020A8471020A047FEE7114961
:100BA000074D084C00221020A8471020A047BBE7A3
:100BB00000A3E11100000000D91F41008579400029
:100BC000150D4000ED784000A02240207822402002
:100BD000757D40006D794000858A4000000000006E
:100BE00084C741006CC74100A57740000123410044
:100BF0002DE9F047164F0646894690463B460024AD
:100C000053F8045B35B101340A2CF9D140F2E730D6
:100C1000BDE8F0870F4B142098470F4B30600460FD
:100C2000D6F800A09847CAF8040033680B49C3F807
:100C300008803368C3F8109032681369A1FB03136E
:100C40005B09D360336847F824302846BDE8F08755
:100C50007822402091764000792741001F85EB5192
:100C600009290CD830B4094B53F8215055B104462A
:100C70000FCD0FC42B682360002030BC704740F2BA
:100C8000E730704740F2E730F7E700BF78224020B6
:100C90000268092A0AD803690649074851F8222040
:100CA000A0FB03035B09D3600020704740F2E730EC
:100CB000704700BF782240201F85EB5170B50F4A66
:100CC00084B0064690470E49002840F2DC5201F1FC
:100CD000280508BF6422002441F8044BA942FBD137
:100CE000084B09491E6003AD01950725074C009587
:100CF00033460748A047002004B070BD0579400086
:100D0000782240205C14402094C74100B51E410069
:100D1000090B40002DE9F04F8D4B8DB0834689467D
:100D200092469847002800F0BE81EFF311834FF000
:100D3000800272B682F31188BFF36F8FBFF34F8FBB
:100D400062B6844B9847844B012098470025834B1B
:100D5000049504A898470746002840F0A981049DFF
:100D6000B5F5804FC0F0D2814FF48045BAF1000F45
:100D70000BD07B4E33689B681F6807EB47039B00D3
:100D800003F554739D42C0F08E81764C764B2268F9
:100D9000102111702268022151700DF10F00984747
:100DA00023689DF80F209A70704B26689847704B07
:100DB000F070C3F1040103F16400CA1813F801CF05
:100DC0002668984206F802C0F7D109F1FF39682376
:100DD00004E02068CB2BC2540BD00B4619F8012F2E
:100DE000591C002AF5D1194620680133CC2B4254F6
:100DF000F9D122685F4BC2F8CCB0984722685E4BAD
:100E0000C2F8D00026689847C6E935015B4B2668D2
:100E100098475B4BC6F8DC0026689847594BC6F8E4
:100E2000E00026689847584BC6F8E40026689847C3
:100E3000564BC6F8E80026689847554BC6F8EC00B4
:100E400026689847C6F8F000BAF1000F00F0498113
:100E50002368C3F8F470002F00F05481404EF8214D
:100E6000002332682068926802EB830201335268E3
:100E7000BB42126A425001F10401F2D19B0003F11E
:100E8000F806444B444F984706AB05AA002180461C
:100E9000B847059A414B02F500714FF40070994232
:100EA000069000F20B814FF406733344AB4200F21C
:100EB000FA803B4B40469847002800F017810178A4
:100EC000002900F021810346C0F1010C06F10F0753
:100ED000226891550CEB030213F8011F30460136CE
:100EE000002900F00481B742F2D122680021D155D7
:100EF000831C22680599D150226806991A4403F18F
:100F0000080B5160069A5AB1002205992368895846
:100F100043F80B10069B043293420BF1040BF4D8F8
:100F20000026DFF880A037460DF11C0939464846F7
:100F30000137D04700B901360A2FF7D1226805F1F1
:100F4000FF3842F80B6000270BF1040B2FE000BFC5
:100F500005794000391E4000111440002916400058
:100F600060144020A022402085794000DD7A4000B6
:100F7000A3224020417A4000817B4000A9764000B6
:100F8000A17640002577400009774000897740002E
:100F90006D774000792741005D7D4000FFFF4520CF
:100FA000E51F4100610C400001370A2F61D039462E
:100FB0004846D04705460028F6D10BF124034345A7
:100FC00057D8564B089898470378002B7BD0C0F130
:100FD00001060BF10F0C226802F80B30321810F8E2
:100FE000013F59460BF1010B002B6DD0E345F2D1C7
:100FF00023680022023103F80B200091009E236831
:101000000A9A9A510898464B9847236800963344A9
:1010100006F1080B5860236801930898414B424E33
:101020009847019B43F80B0005AADDE9080106ABD0
:10103000B04700992368059A0B4401F1140BDA605C
:101040002368069A0B4402EB0B0188451A6110D302
:10105000069B002BA8D0059A2368525943F80B2011
:10106000069B0435AB420BF1040BF4D801370A2F71
:101070009DD100252D482E4E07954A462946B0475A
:10108000052803D029482B4A2946904700212748A4
:10109000294D5A46A847014628B922682348274CBB
:1010A0005B46A04708B140F2E7300DB0BDE8F08FD5
:1010B0000495BAF1000F7FF45CAEF4E79B1A9B1025
:1010C00006931833F1E62A460BF110018E1A00211F
:1010D0005B4622680BF1010BB345D154F8D1009661
:1010E0008CE74FF0F40B0DF11C09C2E7024606F144
:1010F00010039B1A00203246216801369E42885414
:10110000F9D1F6E6F826BCE60A46F0E7BAF1000F98
:101110007FF42FAE4FF4547334E600BFE51F410057
:10112000317D4000452741005D7D4000504D550414
:1011300001174000191A400031174000951940006E
:1011400070B5134B05460C469847E0B1114B124E53
:101150004FF480409847114B114A1D60106023786E
:10116000A3B12146C4F10100324602F8013B441804
:1011700011F8013F002BF8D100250A4B0A483555DC
:101180009847284670BD40F2E73070BD1C46F3E733
:1011900005794000B1764000A42240206014402030
:1011A000A0224020997D4000150D400030B5164C1E
:1011B000237883B01BB1154B187803B030BD144BA6
:1011C0000DF1070098479DF807301A2B03D0302BFC
:1011D00001D0012B05D80D4B18780123237003B0E3
:1011E00030BD0C4DA8470928F5DDA8470F2806DDBE
:1011F0009DF80730022B02D0074B02209847034B83
:1012000001201870E9E700BF6514402064144020F5
:1012100085794000F5794000ED78400038B5094AFD
:10122000094B1468094D4FF0FF31A1601B6810682D
:10123000A3F50073FF224FF40071A847A0600020BF
:1012400038BD00BF6814402044074020D11C400036
:1012500008B5044A044B1068FA219847B0FA80F0A8
:10126000400908BD7014402055764000014A024BE9
:1012700010681847701440206D76400038B5094B4F
:10128000094D1968094A04462868904738B9286802
:10129000074B21464FF40072984700B938BD0A2029
:1012A00038BD00BF4407402074144020D9024020BC
:1012B000B90340202DE9F042294C2378002B45D07A
:1012C000284D2B7806460F4691463BB3264B1A68AD
:1012D0005069002802F108023BDD1346002404E0B7
:1012E0000134844203F1140329DAD969B142F7D1F8
:1012F000196AB942F4D104EB840402EB8404206936
:101300006169A269E369A9E80F002D78206AC9F82C
:1013100000000DBB154B9847284615E0144B984725
:10132000E0B1237823B9104B1A6801200832D4E7C2
:101330000D4B1A685069002802F10802CDDC2B78A9
:101340003BB90A4B98470520BDE8F0820120BDE873
:10135000F0820520BDE8F0820020F5E70B20F3E7DE
:101360006C1440206D144020741440206D12400015
:101370005112400010B586B00F4B01AA9847B8B97A
:101380000E4A0F4B10681B68DDE901411844B1FBA0
:10139000F3F203FB1212204432B90A4B984700289B
:1013A00018BF0A2006B010BD19445B421940F4E78B
:1013B000052006B010BD00BFB512400074144020D7
:1013C00044074020D902402070B586B016460C4C28
:1013D00001AA1D46A04780B90A4A0B4B106819683C
:1013E000019A0A4B0844104431460A9A2844984707
:1013F000002818BF0A2006B070BD052006B070BDD9
:10140000B51240007414402044074020B903402026
:10141000014B1870002070476D1440202DE9F041F9
:101420001F4C27780546884627B31E4B1B784BB3C5
:101430001D4B1B685E69002E03F1080311DD0022BD
:1014400003E0B24203F114030BDADC69AC4202F1AF
:101450000102F6D11C6A4445F3D1C7B10020BDE8B2
:10146000F08117B10520BDE8F081104B98470520A9
:10147000BDE8F0810E4B984770B10A4B27781B7876
:10148000002BD5D1084B1B6801260833D7E7074B43
:1014900098473846BDE8F0810B20BDE8F08100BFD9
:1014A0006D1440206C144020741440206D124000D4
:1014B000511240002DE9F0471E46274C00233360AF
:1014C0002578002D34D0DFF8A0A017469AF8002028
:1014D0008046894612B3214A15686969002905F1D9
:1014E000080537DD346800200EE0EB6948F8243049
:1014F00033682A6A49F823203468884204F10104D9
:1015000005F11405346003DAA74200F10100ECD8BC
:101510009AF800407CB10020BDE8F087104B984756
:1015200070B1237873B90D4B1D6801210835D9E7D7
:101530000120BDE8F0870B4B98472046BDE8F087B7
:101540000B20E9E7054B1D686969002905F10805CD
:10155000C8DCDDE71846DFE76C1440207414402037
:10156000511240006D1240006D1440202DE9F047EB
:101570009846284C0023C8F800302578ADB3DFF832
:10158000A4A016469AF80020074689461AB3224AB4
:1015900014686169002904F1080438DDD8F80020D6
:1015A00000250EE0E369BB4207D1236A49F82230E7
:1015B000D8F800200132C8F800208D4204F114044C
:1015C00003DAB24205F10105ECD39AF800407CB190
:1015D0000020BDE8F087114B984770B1237873B9AC
:1015E0000D4B1C6801210834D8E70120BDE8F087C5
:1015F0000B4B98472046BDE8F0870B20E9E7064BE8
:101600001C686169002904F10804C7DCDDE718469D
:10161000DFE700BF6C1440207414402051124000DA
:101620006D1240006D1440202E4B1B78002B50D0C3
:101630002DE9F041DFF8C48098F8003082B0074609
:1016400093B3294B1E68706906F1080C614688B394
:10165000012843DD0022DCF81040461E10462346D8
:101660004C6A51F8145FE31A5B1B984202F10102C5
:1016700038BF1846B242F2D106EB86061B491C4A17
:101680000C68116898F800200CEB8606D6E9043542
:10169000641A2B44E41A844238BF0446DAB13C6031
:1016A000002002B0BDE8F081124B98470028C8D155
:1016B0000B20F6E70D4B0E4A1B6812689B1A3B6025
:1016C00098F80030002BECD10B4B01909847019813
:1016D000E7E701207047084B9847E0E7461E0020E7
:1016E000CAE700BF6C14402068144020480740201F
:1016F00044074020511240006D1240006D144020FC
:10170000094B1B780BB90120704710B586B0144601
:10171000064B01AA984718B9039B236006B010BD79
:10172000052006B010BD00BF6C144020B51240006B
:101730002DE9F04F6A4C83B023780091002B00F024
:1017400092801746002A00F08A80664B81469847AF
:10175000002800F09B80644B1B78002B00F08780F2
:101760002378002B00F08A80604B1D68D5F8148028
:10177000B8F1130F05F1080500F3A9805C4B1E6852
:10178000B7FBF6FB06FB1B73002B7DD006EB070BAC
:10179000ABEB030BB8F1000F16D02B699B4579D941
:1017A000B8F1010F79DD2846012402E0444574D0E8
:1017B00003694169426A0B44D21A934504F101045A
:1017C00000F11400F2D898464A4B1B68D3F814A0D5
:1017D0000833BAF1000F0193564659DD4FF0000C63
:1017E00003E00CF1010CE24552D01A69904503F177
:1017F0001403F6D2E245D8BF664611DD019B0AEB21
:101800008A0E03EB8E0EAEF104050FCD0EF110041F
:101810000FC4013E2B6823606645AEF1140EF2D171
:1018200006EB86060198009CB3001033C1180AF13C
:10183000010240F80380C1E901B7C1F80C900C61C6
:101840002D4BC26098472B4B18682C4B9847264B62
:101850001B782BB92A4B00909847009800E0022093
:1018600003B0BDE8F08F012003B0BDE8F08F254B39
:10187000984700287FF474AF0B20F1E71B4B1D68DD
:101880000835D5F80C8079E7BB4683E70620E7E703
:101890005646C5E74FF0000896E708F1FF3808EB19
:1018A000880805EB8805184BD5E904121B6801EB85
:1018B00002089E1BA6EB0806B34585D90A4B1B7888
:1018C0000BB10720CCE70E4B98470720C8E7064B23
:1018D0001B781BB90A4B98470920C1E70920BFE7CD
:1018E0006C1440201D1440006D14402074144020DE
:1018F00044074020681440201D1240007D12400023
:101900006D1240005112400048074020034B1B78E5
:101910000BB901207047024B184700BF6C144020E0
:101920007513400010B4064C24781CB901205DF8F2
:10193000044B7047034CA4465DF8044B604700BF5E
:101940006C144020C913400070B50E4C247886B04A
:1019500014B9012006B070BD16461D4601AA0A4BF7
:10196000984758B9094A0A4B11681A68019B1144F3
:101970001944039B31602B6006B070BD052006B092
:1019800070BD00BF6C144020B5124000741440209C
:10199000440740202DE9F043DFF8788098F80040B4
:1019A00089B01CB9012009B0BDE8F08317469946FB
:1019B00003AA154B06460D46984708BB059C4C45A7
:1019C0001AD198F800301BB90A2009B0BDE8F0839D
:1019D0000E4B2946304698470028F5D198F800303C
:1019E000002BF1D000940346094C3A462946304674
:1019F000A0470028D7D0E7E7022009B0BDE8F08370
:101A0000052009B0BDE8F083B51240007513400011
:101A1000C91340006C1440202DE9F043DFF8D48056
:101A200098F8003083B004460D46002B3DD0DFF817
:101A3000C890D9F800707B69002B07F1080749DDD1
:101A40003A46002604E001369E4202F1140238DADA
:101A5000D0698442F7D1106A8542F4D103F1FF3C8A
:101A6000B44510D906EB860E07EB8E0E0EF1240559
:101A70000FCD0EF110040FC401362B682360B4455E
:101A80000EF1140EF2D8174BC7F80CC09847164B3E
:101A9000D9F80000984798F80030C3B9134B01906B
:101AA0009847019803B0BDE8F083114B9847A8B15F
:101AB000DFF84490D9F800707B69002B07F1080724
:101AC000BEDC98F800302BB9084B9847052003B0CE
:101AD000BDE8F083052003B0BDE8F0830B2003B020
:101AE000BDE8F0831D1240007D1240006D124000E1
:101AF000511240006D14402068144020164B1B7892
:101B00000BB90120704770B5144C154B2068154D6A
:101B1000154E4FF40072FF2198472268134B144969
:101B20001360012002F10803506009682A685A60B6
:101B30000022C3E902120F4B9847296830680E4B08
:101B4000984738B9216830680C4B4FF400729847B9
:101B500000B970BD0A2070BD6C144020681440208C
:101B6000156941004407402074144020534658240E
:101B7000400740201D124000D9024020B9034020F8
:101B80002DE9F843344C236880460F46002B5BD088
:101B9000324C334E334BDFF8F090334D984727608B
:101BA000C6F80080C8472860C847236893FBF0F256
:101BB00000FB12329B1A2A682C4F2360B3EB420FB2
:101BC00038603EDB2A4BDFF8C4804FF40070984742
:101BD000C8F8000000283BD03168264B4FF4007253
:101BE00098472368244A01210133117024D0D8F882
:101BF0000040224B22689A421ED16368012B1BD100
:101C00004FF0FF33A668A3602B68D8F80000DFF818
:101C10008080A3F50073FF224FF40071C047864215
:101C20000AD1A6602A68E168914205D122693B6821
:101C30009A4201D1002002E0114B98470020BDE8F4
:101C4000F8830720BDE8F8830E4B984720609FE794
:101C50000320BDE8F88300BF7014402048074020EF
:101C600074144020951C4000440740204007402049
:101C7000B1764000096741006C1440205346582457
:101C8000FD1A40008576400079F24000681440203B
:101C9000D11C40000C480D4930B400F5806500248B
:101CA00022460823002A03F1FF33B4BF81EA42022F
:101CB000520013F0FF03F5D140F8042FA84204F1BD
:101CC0008074EDD130BC704704234020B71DC1049F
:101CD00000292DE9F04152DD00F1FF3E294E0EEBC7
:101CE00001084FF0FF354FF0010C1EF8010F0721DE
:101CF000002410F0010F1CBF0CFA01F73C4301391E
:101D00004FEA5000F5D284EA1564E4B2F04556F883
:101D1000241081EA0525E8D1002B1CDD194E4FF077
:101D2000000E4FF0010C10460721002410F0010FA7
:101D30001CBF0CFA01F73C4301394FEA5000F5D2C1
:101D400084EA1564E4B20EF1010E56F824107345CE
:101D500081EA0525E7D1002318464FF0004115F030
:101D6000010F18BF21FA03F203F1010318BF10435A
:101D7000202B4FEA5505F2D1C043BDE8F0814FF06A
:101D8000FF35C9E708234020F0B4184C0023036056
:101D9000074604F1C806A446234602E01433B342C2
:101DA0000AD05D68A942F9D19D68AA42F6D1187897
:101DB0000028F3D0022007E00023257814342DB149
:101DC00001330A2BF9D10B20F0BC704703EB8303DE
:101DD0000CEB8304C4E90112C4E9035501200CF89B
:101DE00023003C602846F0BC704700BF0827402015
:101DF00030B50D4D2B680C4683B011466BB10B4BC3
:101E0000204698470A4B002103F1C80203F8141B2F
:101E10009342FBD1002003B030BD064B019298479E
:101E200001992860EBE700BF78144020811B400037
:101E300008274020857640000C2070470E4B9842C2
:101E400001D00120704710B50C4C0D4B2068FA21D1
:101E5000984778B90B4B03F1C8011A7802B1187092
:101E600014338B42F9D12068074B9847074B9847AA
:101E7000002010BD0D2010BDC9007F427814402005
:101E800055764000082740206D764000FD1A40003E
:101E900008B5044B98470B2896BF034B0C2053F80A
:101EA000200008BD011740009CC7410010B5044C3C
:101EB000A0470B2896BF034B0C2053F8200010BD01
:101EC000B5144000CCC7410010B5044CA0470B2806
:101ED00096BF034B0C2053F8200010BD6D15400039
:101EE000CCC741002DE9F047DFF8D0902E4C82B0EE
:101EF00005460E46D9F80000FA2117469846A04735
:101F0000002843D12860294B3A4631462846984755
:101F1000044638BB264B424639463046984704466D
:101F20000B2827D8DFE800F0063D2626262639377D
:101F30002637263B4FF0000C01AB6A463946DFF8E6
:101F400080A03046CDE900CCD0472A68194B022149
:101F500011702A680099D1602A6839463046C2F863
:101F600010809847D9F80000134B9847204602B0DC
:101F7000BDE8F0870C242A680F4B00211170D9F8B6
:101F800000009847204602B0BDE8F0870D242046A7
:101F900002B0BDE8F0870924EDE70324EBE70A244B
:101FA000E9E70824E7E700BF55764000891D4000B7
:101FB000311740000D1940006D7640007814402024
:101FC00049194000F0B5234F234B83B005460E4618
:101FD0003868FA219847002830D1204B03F1C80017
:101FE00002E0143383420FD05C68A542F9D19A68AD
:101FF0009642F6D11A78002AF3D03868184B9847E1
:102000000224204603B0F0BD164B314628469847BF
:102010000346B8B9144C01933246294601A8A0479B
:10202000044628B9019B114A1870D3E90101904771
:1020300038680B4B9847204603B0F0BD0D2420466E
:1020400003B0F0BD3868064B98470524204603B01E
:10205000F0BD00BF7814402055764000082740208E
:102060006D7640001D144000891D4000191A400083
:10207000F8B50023144C036007460D462068134B47
:10208000FA2116469847E0B9114B03F1C80102E066
:1020900014338B420CD05A68AA42F9D19A68B242E2
:1020A000F6D11A78002AF3D03B6014338B42F2D178
:1020B0002068084B98473B68002B14BF002006207F
:1020C000F8BD0D20F8BD00BF7814402055764000C3
:1020D000082740206D7640002DE9F0410023DFF80D
:1020E000E880036084B007460D46D8F80000304B06
:1020F000FA2116469847002855D12E4B03F1C80106
:1021000002E014338B4211D05C68A542F9D19A6881
:102110009642F6D11A78002AF3D0D8F80000264B60
:1021200098470224204604B0BDE8F0810024234BE8
:10213000019401AA314628469847044690B10528E3
:1021400007D1D8F800001C4B9847204604B0BDE8E2
:10215000F081D8F80000184B98470C24204604B0B2
:10216000BDE8F081164B324629463846984704466A
:102170000028E6D1314603AB02AA2846114DCDE92D
:102180000244A8473A680C4B022111703A68029940
:10219000D1603A680399D8F8000011619847204649
:1021A00004B0BDE8F0810D24204604B0BDE8F08104
:1021B00055764000082740206D764000011740000A
:1021C000891D400049194000781440202DE9F04154
:1021D000104F114B054688463868FA211646984735
:1021E000A0B92B78022B0BD1EB68C8F800302B6913
:1021F00033600446094B386898472046BDE8F081B3
:102200003868064B98470620BDE8F0810D20BDE8F0
:10221000F08100BF78144020557640006D76400074
:102220002DE9F043DFF86080144C83B005460E467C
:10223000D8F80000FA2191461F46A047D0B92B7864
:10224000022B0FD1009704464B46D5E901013246D7
:102250000B4DA847D8F800000A4B9847204603B01A
:10226000BDE8F083D8F80000064B9847062003B07D
:10227000BDE8F0830D2003B0BDE8F0835576400043
:10228000251940006D7640007814402070B50C4E42
:102290000C4B0546FA213068984770B92B78022B11
:1022A00006D128700446084B30689847204670BD18
:1022B0003068054B9847062070BD0D2070BD00BFEB
:1022C00078144020557640006D764000704700BF7E
:1022D000D1E90432934207D2CA6810B45C1C0C6185
:1022E000D0545DF8044B7047704700BFF0B585B01F
:1022F00004460F460A4B416803A81646984768B93A
:10230000039A084B054639461069324698470096AD
:10231000227F6168039B044C2846A04705B0F0BDAE
:1023200045034000096741006903400010B50446B9
:10233000806818B1064B98470023A360A069054C3C
:102340000023A4461A46BDE810401946604700BF66
:10235000010A4000951541002DE9F04F2DED028B4B
:10236000A7B008AFA34BD0F800807860984700284A
:1023700040F012844FF4167203234FF06409FA60A0
:102380009D4CDFF8CCB2DFF8CCA29C4D424607F161
:10239000180107F11400A0477968994C0979D7E929
:1023A00005234046A047974B9847073020F0070386
:1023B000ADEB030DF868944B9847944B04464846A0
:1023C0009847934BB860984700260346314603224E
:1023D0007C66BB65FC688F4BFC660120C7F85C809F
:1023E0003E66BE6698477C683867A4687C6708AC20
:1023F00008EE104A3346884C32463146A047BB6847
:102400008649874CCDF8049007F15802009385481F
:1024100018EE103AA0477968CB689847824B4FF482
:102420007A7240F6B83107F11C00984707F1400472
:102430003E60C1464FF4FA7307F120024FF0FF31BE
:102440000020D847F869D047D9F800203B6A1A42E3
:10245000F0D078690123002207F12801A84700285D
:10246000E8D0F869D0477B68BA6A5B689A424FF057
:10247000000305D078691A4607F12801A847E8E764
:10248000386F19464FF47A72A847012807D158E0EF
:102490000023386F19460A22A84701284AD0F86954
:1024A000D047B869614B0A21984706460028EFD10A
:1024B000D7F814805E4B404698470C2836DC5D4BBD
:1024C00040469847031EBB60C8BFFE6008DC1AE0A8
:1024D000594B9847FA68BB6801329342FA6012D0B0
:1024E00000231A4621464046A847FB6C1B691A6820
:1024F000153A0023022A214648461A46E8D9464E94
:102500004046B047E6E74B4B40469847C0F132069D
:102510000B2E0BDC00231A4621464046A847013605
:10252000454B2146484698470C2EF3D1B869434B9A
:102530009847ADE70023386F374E1A461946B04723
:1025400087E7D7E90D127B680E69D3F800803368FE
:10255000082A00F0BC800C2A08D1032B00F0D2829C
:10256000042B00F0D882142B00F0DD82152B00F034
:102570002381162B0FD173689A4200F0FC8207F179
:1025800028012D4B40469847002378691A4607F1E9
:102590002801A8475DE7172B18D173689A42EED13E
:1025A0003B68BB66D6E90313B068726907F1580649
:1025B0000196234E0096234EB0477B68224A1E693F
:1025C000D7E9190107F15803B047D8E7192B43D1D0
:1025D00073689A42D3D13B68BB66D6E9031372692C
:1025E000B06807F158060196154E0096174EB04791
:1025F000E3E700BF0579400005034000851841006E
:10260000290340009DF2400091764000B1764000E1
:10261000792741002515410095154100CD22400044
:10262000A1F24000ED224000F10B40005576400041
:10263000E11A4100A91A4100510340006D764000A3
:10264000D1224000DDFF40002D2340002D0241003B
:102650009D294100910C4000182B10D173689A42BB
:102660008DD13B68BB66D6E903137269B06807F188
:1026700058060196964E0096964EB0479DE71A2B47
:1026800011D173689A427FF47AAF3B68BB66D6E992
:1026900003137269B06807F1580601968C4E0096D4
:1026A0008D4EB04789E71B2B1CD173689A427FF48B
:1026B00066AF3B68BB66D6E903137269B06807F181
:1026C00058060196824E0096844EB04775E7022B5D
:1026D0007FF44CAF3B68BB6607F15801804B7C48E8
:1026E00098476AE7052B17D173689A427FF447AF82
:1026F0003B68BB6607F15803D6E9020196ED040A70
:10270000D6ED081A96ED071AB269D6ED050A0093C0
:10271000744E6F4BB04750E7062B21D173689A4235
:102720007FF42DAF3B68BB66D6E9020196ED040A43
:10273000D6ED0D4A96ED0C4AD6ED0B3A96ED0A3AD7
:10274000D6ED092A96ED082AD6ED071A96ED061A57
:10275000D6ED050A5E4A644E07F15803B0472CE7F0
:10276000072B15D173689A427FF409AF3B68BB66AB
:10277000D6E90312F369D6ED060A96ED050AB068AC
:1027800007F158060196524E0096584EB04714E78E
:10279000082B23D173689A427FF4F1AE3B68BB6685
:1027A000D6E903137269B06807F158060196484EDE
:1027B00000964F4EB04700E773689A427FF4DFAE51
:1027C0003B68BB66D6E903137269B06807F1580627
:1027D00001963F4E0096474EB047EEE6092B15D1C5
:1027E00073689A427FF4CBAE3B68BB6607F158032F
:1027F000D6F814C0B068D6E903120293344B0193A3
:10280000B669009663463C4EB047D6E60A2B15D112
:1028100073689A427FF4B3AE3B68BB66D6ED040A98
:1028200096ED030A7169B068D6E9062307F15806E8
:102830000196274E0096314EB047BEE60B2B13D1C2
:1028400073689A427FF49BAE3B68BB66D6E902018F
:1028500096ED040AB369327D07F1580601961C4EC5
:102860000096274EB047A8E60C2B1DD173689A42FC
:102870007FF485AE3B68BB6607F15803D6F814C0F9
:10288000B068D6E903120693114B0593B36A04931B
:10289000736A0393336A0293F3690193B6690096EE
:1028A0006346184EB04788E60F2B2FD173689A42C3
:1028B0007FF465AE3B68BB66D6E903127369B06806
:1028C00007F158060196024E00960F4EB04774E687
:1028D000D1224000AD014100B50241003D0341005D
:1028E00021F7400029F84000D9F84000D1F9400014
:1028F00071FA40002D014100F1FA400075FB4000E3
:1029000025FC4000ADFC400055FD4000102B2FD1B0
:1029100073689A427FF433AEB36B7B62326A96ED92
:102920000D2AD6ED0C1A96ED0B1AD6ED0A0A96ED85
:10293000090AF3680492F2690392B2690292726919
:10294000019232690092984E22463C2107F1240000
:10295000B04700287FF413AE7B6B3B6678637B68DF
:10296000396C1E69786A914A07F15803B04706E648
:10297000112B28D173689A427FF401AEB36B7B624E
:10298000326A96ED0D2AD6ED0C1A96ED0B1AD6ED9D
:102990000A0A96ED090AF3680492F2690392B26991
:1029A00002927269019232690092814E22463C2164
:1029B00007F12400B04700287FF4E1AD7B6B3B6654
:1029C0003B687B63CBE7122B28D173689A427FF474
:1029D000D6AD336C7B62326A96ED0F3AD6ED0E2A95
:1029E00096ED0D2AD6ED0C1A96ED0B1AD6ED0A0AC5
:1029F00096ED090AF3680492F2690392B2690292B1
:102A000072690192326900926A4E2246442107F1AE
:102A10002400B04700287FF4B2AD9DE7132B28D1E6
:102A200073689A427FF4ABAD336C7B62326A96ED89
:102A30000F3AD6ED0E2A96ED0D2AD6ED0C1A96ED2C
:102A40000B1AD6ED0A0A96ED090AF3680492F269A8
:102A50000392B26902927269019232690092564EF3
:102A60002246442107F12400B04700287FF487ADB7
:102A700072E70D2B27D173689A427FF480ADF2681C
:102A8000B36896ED040AD6ED050A96ED061AD6ED62
:102A9000071A009228363E643E687E6207F12402DF
:102AA000464E28212046B04700287FF468AD7B6B56
:102AB0003B667B6878631E69796A386C3B4A07F12C
:102AC0005803B0475BE50E2B39D173689A427FF407
:102AD00056ADF268B36896ED040AD6ED050A96ED98
:102AE000061AD6ED071A009228363E643E687E62CA
:102AF00007F12402324E28212046B04700287FF4F7
:102B00003EADD4E73B68BB66B0682E492E4B07F15B
:102B10005802984751E53B68BB66B06829492B4B82
:102B200007F15802F5E73B68BB66002207F158033E
:102B3000B0680093264E234B1146B0473DE51C2B51
:102B40007FF41DAD73689A427FF419AD3B68BB6694
:102B50000B692C337B62D6E902323E683E64CDE9D4
:102B600000241C4E00222C2107F12400B04700282D
:102B70007FF405ADF0E6B3697B627269F368019298
:102B800032690092144E22461C2107F12400B047FE
:102B900000287FF4F4ACDFE64FF4FA59C7F80C9044
:102BA0003223FFF7EDBB00BFD5FD40002D234000D1
:102BB000D9FE400055FE400059FF4000C5034100CA
:102BC00075044100D12240004DF740008DF74000D0
:102BD000CDF74000250541005D0041002DE9F0439F
:102BE0001F4DDFF8A0901F4E85B00446A84700286F
:102BF0004FF0140014BF4FF47A784FF49678C8471A
:102C00000346032718485F60184A1A614FF0020C08
:102C100002A90427C3E902C01C604246CDE9007145
:102C200013481449B047A84718B9002005B0BDE8BB
:102C3000F0831420C8470623046043600E4C0F4BFA
:102C400003A90522C0E9034382600346CDE9007170
:102C500042460B490648B047002005B0BDE8F08366
:102C600005794000B51E41004D934000D5944000C9
:102C700059234000FCC74100799440001195400061
:102C800004C841009176400010B50121034C2A2070
:102C9000A04700212A20A047002010BD5D874000EA
:102CA000012910B50C460FD00A4B292098470A4A33
:102CB0000A4B146001212A209847BDE81040084BB8
:102CC000002201212A2018470A46064B06492920DE
:102CD0009847ECE70589400084144020CD874000E8
:102CE0001987400011884000D92D4000004B18473B
:102CF000B57B400010B4034C4068A4465DF8044B1B
:102D0000604700BF61E24000014B4068184700BFC8
:102D10001DE24000014B4068184700BF3DE2400003
:102D2000004B184739174100004B1847591A41000A
:102D3000044B4FF080521A60BFF34F8FBFF36F8F79
:102D4000704700BF04ED00E010B5084B084C186850
:102D500084B003AA00230092022101220393A0471A
:102D6000039B0BB1034B984704B010BD8014402067
:102D7000252B4100312D400010B5084B084C186838
:102D800084B003A901220023009111460393A047B8
:102D9000039B0BB1034B984704B010BD8014402037
:102DA000252B4100312D400010B5084B084C186808
:102DB00084B003AA00230092042101220393A047B8
:102DC000039B0BB1034B984704B010BD8014402007
:102DD000252B4100312D400010B5084B084C1868D8
:102DE00084B003A901220023009111460393A04758
:102DF000039B0BB1034B984704B010BD80144020D7
:102E0000252B4100312D40004FF47A72B2FBF1F2D4
:102E100007EE902ADFED116AB8EEE77A30B5C6EE1C
:102E2000877A83B0C0ED017A59B964230C460A460B
:102E300080680B4D00930B460321A847204603B042
:102E400030BD64238068064C009304210023A04712
:102E5000002814BF00200D2003B030BD00007A44CC
:102E6000C92E410070B50C4B1B68044623B9BDE860
:102E700070404068094B18470D460021084E08462F
:102E8000B047064B60682946984701210446002058
:102E9000B047204670BD00BF8414402009E24000C6
:102EA000A12C40002DE9F0474A4EDFF878A1DFF869
:102EB000789196B0074608208846B047044600231C
:102EC000454A036044F8043F05469047B047434BEA
:102ED000014620469847424B424C04209847424ABC
:102EE0004249009203460C93012202230A91404872
:102EF0000B944FF47A71D0473E4B00930446032362
:102F000001224FF47A713C480694CDF81090D047D6
:102F10003A4CDFF818E1DFF818C13949394A3A4B21
:102F20000E921093394A3A4BDFF808A11592CDE979
:102F300011ECCDE91341CDF81C900990CDF83CA0DF
:102F40009847B04707AA04AB0146CDE90032314C9F
:102F500002950AAB0EAA3846A0470820B047C0F831
:102F600000803B6843604FF4C152C3F8BC204768FF
:102F70000446D7F8BC00B047C7F8B8006268D2F87A
:102F8000B83013F01F010CD0C1F120000344C2F887
:102F9000B8306268D2F8BC30203B0B44C2F8BC3079
:102FA0006268D2F8BC301C4F1C49DFF88C801C488A
:102FB00023F01F06C2F8BC600622CDE90027234695
:102FC0004FF49672C0473B682B60002016B0BDE8F6
:102FD000F08700BF91764000F9E14000A1E1400098
:102FE00085174100212D4000492D4000292D40002A
:102FF00010C84100A92D400028C84100792D40008B
:10300000892C4000652E4000152D4000A12C400069
:10301000A1384000A93840008014402040C8410039
:10302000453240006D2E4100092E4000F52C400035
:10303000ED2C4000092D4000B51E41002DE9F04F58
:1030400087B003A94D4B824604AA02A8984702996B
:10305000002940F38E80039A043A02EB8101002597
:10306000012052F8043F00FA03F32B439142DDB2F2
:10307000F7D1434E0024049B002213F8240011468C
:10308000B047029B0134A342F5DC3E4CDFF8FCB0B4
:1030900001AA4D215046A0470DF105020D215046D1
:1030A000A0470DF1060206215046A0479DF80420D6
:1030B0004D212A435046D8479DF805200D212A432B
:1030C0005046D847029B002B55DDEB432E4EDFF8D0
:1030D000C09000254FFA83F82F46039A9DF80630DA
:1030E00052F82510012208EA03038A401A43D2B29B
:1030F00006215046D84700230593059B632B05DC2A
:10310000059B01330593059B632BF9DD029B002B87
:103110001CDD002406E00BB1C8470127029B0134E7
:10312000A34210DD049B0DF1070113F82400B04702
:10313000A5429DF807302046EDD1002BECD0029B34
:103140000134A342EEDC0135AB42C6DC9DF806201B
:1031500006215046D8479DF805200D215046D847F6
:103160009DF8042050464D21D847384607B0BDE8A9
:10317000F08F002589E70027E8E700BF797F40004E
:10318000198740001D434000958740006D3F400077
:10319000957F400000B585B00446104B02A89847C3
:1031A0000F4B204698479DF80A100E4B2046984733
:1031B0000D4B0DF107023B21204698479DF8072053
:1031C0000A4B22F0400242F0080220463B218DF8D3
:1031D00007209847064B9847FEE700BF71784000EC
:1031E00019494000B95A40001D4340006D3F40005E
:1031F000A978400000B5044683B00D4B98470D4BAD
:103200000021204698470C4B0DF107023B21204638
:1032100098479DF80720094B22F0400242F008022F
:1032200020463B218DF807209847054B9847FEE73D
:1032300019494000B95A40001D4340006D3F40000D
:10324000A97840002DE9F04F2DED028BD0E900A4C4
:103250008DB0934A934F944E90474FF49672934B90
:103260004FF47A7103A898470121914B2046984763
:10327000904B64209847904B08A898479DF82030C1
:1032800084F8F1302046B84745B2B047002800F036
:10329000FC808A4A8A4B1570204698470121894B49
:1032A000894FDFF878B2DFF87882DFF878929FED07
:1032B000878A204698479DED090A854B2046984706
:1032C0009DF82210834B204698479DF82310824B8F
:1032D000204698479DF82110804B20469847039838
:1032E000B847B04720284DD04FF4FA734FF0FF3164
:1032F0007B4D04AA0020A847049BD90740F1948085
:1033000094F87030002BEAD00025764B079507A97A
:1033100020469847744B8DF80B500DF10B01204659
:1033200098479DF80B20079B704D012A08BF5B0052
:10333000524606A905A8A847002840F086800599AE
:103340006B4DD1E9033220460831A847002878D1D7
:10335000236D632B00F28E80D9F80030052B70D0DE
:1033600023F00403032B6CD0DDE90523526800929F
:10337000514604225F4D0020A8470398B847B04744
:103380002028B1D1D84798F80050C0B285421BD050
:10339000431E054688F80000062B15D8DFE803F029
:1033A000413E391404141700534B20469847424BB2
:1033B0000AA898479DF82A10464B204698474F4B3D
:1033C000B3EE040A20469847C9F800508CE74A4BF0
:1033D00020469847384B0AA898479DF82A103D4B3D
:1033E000204698473A4BB0EE480A20469847B3EE3D
:1033F000040A424B20469847414B002202212046B6
:1034000098473F4B8022012120469847C9F8005039
:103410006AE7394B204698470021CDE7394B2046D3
:103420009847394B204698479A0706D45B077FF5A3
:1034300056AF364B2046984751E7354B20469847C4
:103440004DE70698334B984749E7079B284D0022E4
:103450000AA92046A847236D632B7FF640AF0021C1
:103460001C4B216520469847244BB0EE480A204665
:10347000984734E720650146164B204698471F4B76
:10348000B0EE480A2046984766E7234B2046984707
:1034900043B22046002B18BF1D46B847F9E600BFCF
:1034A00099764000B9574000DD7A4000F10B4000AA
:1034B000993C4000B57B4000717840004C074020AB
:1034C000015B4000E1514000910C40000000000011
:1034D0002D574000B95A4000155A4000595A400033
:1034E0009D294100C9594000095A4000BD084000CB
:1034F000E14040006903400019494000B5504000D8
:10350000813F4000F531400095314000C14240000C
:10351000F13E4000010A40003D304000F97B400090
:10352000881440207C14402070B490F87C609FED9B
:103530001E6AD0E920520121B14007EE901A02FB29
:1035400005F2B8EEE77A07EE902AF8EE677AD0E94E
:103550001D34C7EE276A01331B1B07EE903A26EE97
:10356000867AFBEEEA7A90F89930C0ED227A80ED07
:10357000237ABBB1D0F8F4209FED0C7A02F120033E
:1035800013F9011D07EE901AF8EEE77A9A42F0EE71
:10359000E77A37EE277AF3D1F7EE006AC6EE877A3C
:1035A000C0ED247A70BC70470000803A0000000033
:1035B0002DE9F04FD0F894402DED048B062C8BB004
:1035C00000F2CE800F461899914602FB04F28A421F
:1035D00000F2CC80E6000125A6F1200CC6F1200106
:1035E00025FA01F105FA0CFC05FA06F24CEA010C89
:1035F0006149DFF894E1804612F1FF32A6F1210A19
:10360000C6F1210025FA00F098ED238AD8ED247A3E
:1036100004920A6005FA0AFA4CF1FF32013E4AEAC6
:10362000000A059205FA06F04A6029FA05F20692A8
:10363000CEE9000A28EE278A02900022B9F1000F95
:1036400000F08180DFED4D8A9FED4D9A0792934601
:103650001E46CDF80480CDF80C90052C32686AD057
:10366000062C60D09446104600210022029B0AEAF4
:10367000010903EA000858EA090305D0049B6CEA33
:10368000030C059B62EA03023E4B114660469847D5
:10369000019B07EE900A1BF0010F67EE887A93F802
:1036A0009A2034D0012AF1EE677A20D01FB107EBBF
:1036B0008B02C2ED007AF4EEE87AF1EE10FA24DA29
:1036C000F4EE497AF1EE10FA98BF0025039B0BF156
:1036D000010B9B452644C0D1DDF804809DBB2846E4
:1036E000C8F850500BB0BDEC048BBDE8F08F27B18B
:1036F000069B07EB8302C2ED007A069BF4EEE87AA4
:103700000133F1EE10FA0693DADB0025DEE7012A39
:10371000CCD127B1079B07EB8302C2ED007A079B50
:1037200001330793C7E7B1880020801841F10001F9
:1037300084460A469AE731790020801841F1000159
:1037400084460A4692E7D8F85030632B02D80133FA
:10375000C8F8503000200BB0BDEC048BBDE8F08FF2
:103760000E200BB0BDEC048BBDE8F08F0B200BB02E
:10377000BDEC048BBDE8F08F500740200000003402
:10378000000000B4855D410058074020F0B4D0F837
:103790009460042E52D8049D02FB06F4AC4252D829
:1037A000012E4ED0022E71D0032E72D0042E4FF077
:1037B000FF3718BF0027D0F8DC50D0ED236A90ED1A
:1037C000227A05FB06F48AB39FED336ADFED335AA4
:1037D00000293BD001EB8206B1EE477A012508E0D3
:1037E000B4EE655AF1EE10FA98BF00258E421444EB
:1037F00017D01A593A4007EE902AF8EE677AB0EEE1
:10380000475AA6EEA75AB4EEC65AA1EC015AF1EEF9
:1038100010FAD0F89420E3DB8E424FF000051444F8
:10382000E7D11DB905652846F0BC7047036D632BD1
:1038300001D8013303650020F0BC70470E20F0BCB6
:103840007047FF27B7E70B20F0BC70471C44B1EE70
:10385000477A012509E0B4EE655AF1EE10FA98BFF7
:10386000002501318A423444DBD023683B4007EE17
:10387000903AF8EE677AB0EE475AA6EEA75AB4EE41
:10388000C65AF1EE10FAE6DB0025EAE74FF6FF77BD
:1038900091E76FF07F478EE700000034000000B42E
:1038A0004FF4C270704700BF2DE9F8450C4615462D
:1038B0001E468046264B08464FF4C2720021DDE9C1
:1038C00008A798470A9B2360B36823613368A36005
:1038D0007368E360642363612B682363AB68A3634D
:1038E0006B686363EB68E3632B6923646B696364F0
:1038F000AB69A3640020EB69E364C4E9140001220E
:103900004FF4C063A3652266A266DAF8083023622A
:10391000DAF80030A361BB68E362396861620023B2
:103920000C4DE06603264FF4807184F8700084F833
:103930009A20A4F89860C4F8C450A4F8F010636604
:10394000C4F8B430C4F8C030C8F80040BDE8F88509
:103950001569410052061E41D0F8C0300B60D0F806
:10396000C430136000207047D0F8B4300B600020E2
:10397000704700BFF0B50446876883B00D46D0E9B4
:1039800004011646B847012802D0032003B0F0BD59
:1039900065F07F038DF804300222636B20688DF898
:1039A000056001A998470546D4E9033098472846A1
:1039B00003B0F0BD2DE9F041054683680C46D0E91F
:1039C000040116469847012802D00320BDE8F08183
:1039D0000F4F8046002219212846B847002218219F
:1039E0002846B847424617212846B8474EB12644D4
:1039F000013E013C14F8012F13212846B847B44278
:103A0000F8D1D5E9033098470020BDE8F08100BF28
:103A100075394000F0B50446866885B00D46D0E99A
:103A200004011746B047012802D0032005B0F0BDBD
:103A3000009000238DF80E500246E56B8DF80F3094
:103A40000DF10E010DF10F032068A8470346D4E9DC
:103A500003201C4690479DF80F303B70204605B070
:103A6000F0BD00BF2DE9F04F0546836883B00F46D7
:103A7000D0E9040190469847012805D04FF0030B88
:103A8000584603B0BDE8F08FDFF8D890344E0022DE
:103A900019212846C847002218212846C847002275
:103AA00017212846C847002401AA142128468DF86A
:103AB0000440A346B0474FF0210A8DF8054008E0C6
:103AC000B04701AA14212846B047BAF1010A83463B
:103AD00035D09DF8043013F004044FF015010DF1BA
:103AE00005022846ECD102221721C847B8F1000F81
:103AF0002ED0B84408F1FF38013F0DF10502152121
:103B00002846B04717F8012F9DF805309A428346A2
:103B100004D08DF8062001348DF807304745ECD1EC
:103B2000002217212846C847D5E903309847002CC2
:103B300018BF4FF0070B584603B0BDE8F08FD5E92A
:103B4000033098474FF0080B584603B0BDE8F08F9C
:103B5000424617212846C847D5E9033098478FE7E2
:103B6000153A40007539400038B504468368D0E9FD
:103B700004019847012802D00325284638BD0F4983
:103B80000F4B40F2DE722046984705460028F4D1DC
:103B900002460C4B1A212046984705460028ECD1D6
:103BA0000649094B40F2DE72204698470546002838
:103BB000E3D1D4E903309847DFE700BF48C84100AC
:103BC000B539400075394000653A40002DE9F041B3
:103BD000044687688846D0E9040116461D46B84762
:103BE000012802D00320BDE8F081D4F8BC306F1C5E
:103BF0009F4219D2D4F8B8200D4B68F07F0882F8A4
:103C00000080D4F8B8002A46314601309847636BEB
:103C1000D4F8B81020683A4698470546D4E90330EE
:103C200098472846BDE8F0810B20BDE8F08100BF31
:103C300009674100F0B5044685B00F461D46D0E93E
:103C40000401A36816469847012802D0032005B056
:103C5000F0BDD4F8BC30AB4218D90095D4F8B830D8
:103C60008DF80F7002460DF10F01E76B2068B84721
:103C70002A460346D4F8B8103046064E1D46B047D3
:103C8000D4E903309847284605B0F0BD0B2005B0B5
:103C9000F0BD00BF0967410038B5044682680D4693
:103CA000D0E904019047012801D0032038BD2946FE
:103CB000236B206898470546D4E903309847284687
:103CC00038BD00BF2DE9F0470646846882B08846BB
:103CD000D0E9040191469A46A047012803D0032069
:103CE00002B0BDE8F087736848F08008002B46D02A
:103CF0000024264F8DF807400DF1070210213046B1
:103D0000B84702E0B847C92C32D09DF807305B07AE
:103D1000E5B20DF107024FF01001304604F1010445
:103D2000F0D51B4C42460F21A04752460F2130468A
:103D3000A0474A460F213046A0470DF10702102147
:103D40003046B84704E00135EDB2B847C92D0FD071
:103D50009DF807305B070DF107024FF01001304668
:103D6000F1D5D6E903309847002002B0BDE8F087CE
:103D7000D6E903309847042002B0BDE8F087D6E9C1
:103D8000033098474FF0FF30AAE700BF153A4000D4
:103D900075394000F8B505468368D0E904019847B5
:103DA000012802D003242046F8BD2A4F1F2601E037
:103DB000701C11D0D5F8F4309A5D1021002302F068
:103DC0003F022846B847013E04460028F0D0D5E916
:103DD000033098472046F8BD1F2601E0711C10D023
:103DE000D5F8FC309A5D1421002302F03F022846EA
:103DF000B847013E04460028F0D0D5E90330984783
:103E0000E8E71F2601E0721C0DD0D5F8F8309A5D66
:103E10001121002302F03F022846B847013E044624
:103E20000028F0D0D3E71F2601E0731C0DD0D5F891
:103E300000319A5D1521002302F03F022846B84761
:103E4000013E04460028F0D0C1E7034B28469847BE
:103E5000BDE700BFC53C40002935400038B50446E9
:103E60008368D0E904019847012802D00325284639
:103E700038BD94F89930C3B1D4F8FC2004F58273AE
:103E80009A4212D094F89830032B16D0042B12D1FA
:103E9000104B1149C4E93F33C4E93D119A4204D0A3
:103EA0000E4B20469847054600E00025D4E9033034
:103EB0009847284638BD1425F8E7094B094D0A48AC
:103EC0000A49C4F8FC30C4F8F450C4F80001C4F83E
:103ED000F810E3E7C8D04100A8D04100953D40006C
:103EE00068D0410028D0410088D0410048D041002E
:103EF00038B504468368D0E904019847012802D008
:103F00000325284638BDA36E012B0ED0164D032382
:103F1000FF2205212046A847A36C20689847054644
:103F2000D4E903309847284638BD0F4D0023FF22BF
:103F30002B212046A8470023FF2236212046A847F0
:103F400094F87030022B0546EAD1E36E43F001028B
:103F500013F0FF0FE266E3D1636A4FF4FA7104F1E4
:103F600024009847DCE700BFC53C400010B4034C78
:103F70000023A4465DF8044B604700BFC53C4000E9
:103F800010B4034C0123A4465DF8044B604700BF06
:103F9000C53C40002DE9F0410446836882B00F46DD
:103FA000D0E904019847012803D0032002B0BDE8FE
:103FB000F0816368002B3DD000230DF10302204DFA
:103FC0008DF8033010212046A8479DF803309A074A
:103FD00001AE0CD5324611212046A8470DF103024F
:103FE00010212046A8479DF803309B07F2D40323F5
:103FF000DFF85080FF2209212046C04732461121B8
:104000002046A8470DF1050211212046A8470DF1D1
:10401000060211212046A8470DF107021121204672
:10402000A847019B3B60D4E903309847002002B0C9
:10403000BDE8F081D4E9033098474FF0FF30B5E791
:10404000153A4000C53C40002DE9F04385B00446D8
:104050000E46DFF884904FF0000803A91D46CDF806
:104060000C801746C847039B63653360E36DAB4222
:104070002DD8D4E90401A36898470128064604D046
:104080000325284605B0BDE8F0834346FF22DFF84C
:104090004C801D212046C047054688B9E16D00913E
:1040A0000523E56B8DF80B3032463B460DF10B01D5
:1040B0002068A84703230546FF220B212046C0475E
:1040C000D4E903309847284605B0BDE8F0830B25B6
:1040D000284605B0BDE8F083953F4000C53C400050
:1040E0002DE9F0410446876882B00D46D0E904010D
:1040F00090461E46B847012804D00325284602B042
:10410000BDE8F081E36DD4F8B82029462046104D73
:10411000A84794F8993005467BB9E36D0093324681
:10412000D4F8B8300B4E41462046B047D4E90330AE
:104130009847284602B0BDE8F081E36D009332460F
:10414000D4F8B830044E41462046B047EEE700BFF1
:10415000494040008D374000B13540002DE9F04323
:104160000546846883B08946D0E90401174698461D
:10417000A047012803D0032003B0BDE8F0836B689B
:10418000002B60D00023334E8DF806300DF107026E
:10419000102128468DF80730B0479DF80730980762
:1041A0000ED50DF10604224611212846B0471021F4
:1041B0000DF107022846B0479DF807008107F2D4A9
:1041C000254C4A460F212846A04742460F21284643
:1041D000A0470DF1070210212846B047C92404E08A
:1041E000B047631E13F0FF0428D09DF8073003F09A
:1041F0000603062B0DF107024FF010012846EFD100
:10420000B0479DF807309A070ED50DF106042246F7
:1042100011212846B0470DF1070210212846B0476A
:104220009DF807309B07F2D49DF806303B70D5E926
:1042300003309847002003B0BDE8F083D5E9033090
:104240009847042098E7D5E9033098474FF0FF30AE
:1042500092E700BF153A40007539400070B504463A
:10426000836882B00D46D0E904019847012803D045
:104270000325284602B070BD236E012B06D002250F
:10428000D4E903309847284602B070BD00230DF1F1
:1042900007020A4E8DF8073037212046B0479DF8B7
:1042A00007302B7094F87020022A0546E8D1012BC4
:1042B000E6D1636C20689847E2E700BF5D414000AB
:1042C00010B50446836882B0D0E9040198470128FC
:1042D00002D0032002B010BDE36EDB0705D4D4E9A1
:1042E00003309847002002B010BD0B4B00220DF1A7
:1042F000070120468DF8072098479DF80730002BCE
:10430000EDD0E16E21F00101E1660029E7D1636A99
:1043100004F124009847E2E75D42400010B4034CEA
:104320000023A4465DF8044B604700BF5D41400098
:1043300010B4034C0123A4465DF8044B604700BF52
:104340005D4140002DE9F0410446836882B0D0E928
:1043500004019847012803D0032002B0BDE8F08192
:1043600094F8F130214F224E002B0BBF42254625F9
:10437000402244224FF000034FF04A0120460CBF78
:104380004FF062084FF06608B8472A4600234A21DA
:104390002046B84700238DF80730642503E0236CDE
:1043A0009847013D17D000230DF1070272212046E6
:1043B000B0479DF807305B064FF47A70EFD5424660
:1043C0004A2100232046B847D4E90330984700200B
:1043D00002B0BDE8F0812B4642464A212046B8474C
:1043E000D4E9033098470520B7E700BFC53C40003B
:1043F0005D4140002DE9F0470546836882B0D0E971
:1044000004019847012804D00324204602B0BDE8E7
:10441000F08700231E463A4FDFF8E890052274210A
:104420002846B84733460DF10602782128468DF814
:104430000660C8479DF80620334602F0BF02782187
:1044400028468DF80620B847B24600230DF1070232
:104450007E2128468DF807A0C8479DF8074014F034
:1044600004040DF106024FF078012846234640D19E
:10447000C84723462246782128469DF80680B8473B
:104480000D22792123462846B84730462B6C9847A1
:1044900008F01F082346224679212846B8472346BC
:1044A000424678212846B84730462B6C06F57A7686
:1044B0009847B6F57A5FC8D123462246742128462C
:1044C000B84723460DF1060278212846C8479DF8D3
:1044D0000620234642F04002782128468DF8062027
:1044E000B8470624D5E903309847204602B0BDE816
:1044F000F08700231A467421B8470024F2E700BF72
:10450000C53C40005D4140002DE9F0470546836809
:1045100082B0D0E904019847012804D00324204642
:1045200002B0BDE8F08700231E463A4FDFF8E8905E
:10453000052274212846B84733460DF1060276213C
:1045400028468DF80660C8479DF80620334602F0DD
:10455000BF02762128468DF80620B847B2460023D0
:104560000DF107027E2128468DF807A0C8479DF867
:10457000074014F008040DF106024FF076012846BA
:10458000234640D1C84723462246762128469DF837
:104590000680B847D022792123462846B8473046BE
:1045A0002B6C984708F01F0823462246792128469D
:1045B000B8472346424676212846B84730462B6CFA
:1045C00006F57A769847B6F57A5FC8D12346224633
:1045D00074212846B84723460DF106027621284665
:1045E000C8479DF80620234642F04002762128461F
:1045F0008DF80620B8470624D5E9033098472046B1
:1046000002B0BDE8F08700231A467421B8470024A1
:10461000F2E700BFC53C40005D4140002DE9F04796
:104620000546836882B0D0E904019847012804D088
:104630000324204602B0BDE8F08700231E463A4F0F
:10464000DFF8E890052274212846B84733460DF17B
:1046500006027B2128468DF80660C8479DF8062093
:10466000334602F0BF027B2128468DF80620B8476A
:10467000B24600230DF107027E2128468DF807A0DF
:10468000C8479DF8074014F001040DF106024FF0F1
:104690007B012846234640D1C847234622467B213A
:1046A00028469DF80680B8470D227C2123462846DF
:1046B000B84730462B6C984708F01F08234622461F
:1046C0007C212846B847234642467B212846B847E6
:1046D00030462B6C06F57A769847B6F57A5FC8D1E6
:1046E0002346224674212846B84723460DF1060288
:1046F0007B212846C8479DF80620234642F0400209
:104700007B2128468DF80620B8470624D5E90330DA
:104710009847204602B0BDE8F08700231A4674216E
:10472000B8470024F2E700BFC53C40005D414000AF
:104730002DE9F0470546836882B0D0E90401984727
:10474000012804D00324204602B0BDE8F0870023EE
:104750001E463A4FDFF8E890052274212846B847F4
:1047600033460DF106027A2128468DF80660C847C7
:104770009DF80620334602F0BF027A2128468DF8C4
:104780000620B847B24600230DF107027E212846D5
:104790008DF807A0C8479DF8074014F002040DF1FA
:1047A00006024FF07A012846234640D1C8472346E7
:1047B00022467A2128469DF80680B847D0227C21DF
:1047C00023462846B84730462B6C984708F01F0808
:1047D000234622467C212846B847234642467A2172
:1047E0002846B84730462B6C06F57A769847B6F5DA
:1047F0007A5FC8D12346224674212846B84723460B
:104800000DF106027A212846C8479DF80620234666
:1048100042F040027A2128468DF80620B847062447
:10482000D5E903309847204602B0BDE8F087002361
:104830001A467421B8470024F2E700BFC53C400087
:104840005D41400070B50C46890705460DD4E2076E
:1048500011D4630716D414F0080401D1204670BDAA
:1048600028460B4BBDE8704018470A4B9847002874
:10487000F5D1E207EDD5084B284698470028EED140
:104880006307E8D5054B284698470028E3D070BD5C
:104890001D464000F54340000945400031474000B7
:1048A000032932D9F0B50D46836883B00446D0E9B8
:1048B00004019847012802D0032003B0F0BD144F33
:1048C0002A4600232D212046B8470023EA001E4631
:1048D000A56502F0F8020E212046B84733460DF1D7
:1048E00007021B210B4F8DF807602046B84705EBE8
:1048F00045059DF807306D0103FB05F5D4E903205C
:10490000E5659047304603B0F0BD0A20704700BF10
:10491000C53C40005D4140002DE9F04105468368FB
:1049200082B0D0E904019847012804D0032420462E
:1049300002B0BDE8F0810346874E07463F220321BF
:104940002846B04704460028F1D13B460F220421F7
:104950002846B04704460028E9D1034660226A2170
:104960002846B04704460028E1D17C4F4FF0650847
:1049700005E02B6C9847B8F1010800F0E6800023B1
:104980000DF1060272212846B84704463220002C59
:10499000CDD19DF90630002BEBDA0323FF220F2146
:1049A0002846B04704460028C1D123460DF106022F
:1049B00069212846B847002840F0C9809DF9063093
:1049C000002B80F2C4800323FF2210212846B04729
:1049D00004460028ABD103460DF1060264212846A7
:1049E000B847002840F0B5809DF90630002B80F2D2
:1049F000B0802346102273212846B0470446002881
:104A000095D10346082249212846B047044600288C
:104A10008DD10123194600222846B04704460028BC
:104A200085D1034602460F212846B0470446002898
:104A30007FF47DAF0346502275212846B0470446D7
:104A400000287FF474AF0346302265212846B04722
:104A5000044600287FF46BAF034607223121284625
:104A6000B047044600287FF462AF0346FF2230219E
:104A70002846B047044600287FF459AF0346024653
:104A800033212846B047044600287FF450AF034640
:104A9000024632212846B047044600287FF447AF3B
:104AA00003460A222F212846B047044600287FF4F7
:104AB0003EAF034602462E212846B0470446002852
:104AC0007FF435AF0023082235212846B04704463D
:104AD00000287FF42CAF034610222C212846B04733
:104AE000044600287FF423AF034610222D212846D8
:104AF000B047044600287FF41AAF0346024642211D
:104B00002846B047044600287FF411AF034601222F
:104B100043212846B047044600287FF408AF0346E7
:104B20000DF107022D2128468DF80740B8470446AD
:104B300000287FF4FCAE9DF80710094B28469847E3
:104B40000446D5E903309847F1E61B24EFE61C2420
:104B5000EDE61D24EBE600BFC53C40005D41400092
:104B6000A148400010B4044C0A46A44600235DF856
:104B7000044B3521604700BF5D41400070B5064CD5
:104B8000064BC0F880100D4698472A46A4460023DD
:104B9000BDE8704035216047C53C400029354000E4
:104BA000F0B50446836883B00E46D0E90401984707
:104BB000012803D00324204603B0F0BD0025104F88
:104BC0008DF806502B460DF106022F2120468DF858
:104BD0000750B8472B460DF107022E212046B84753
:104BE0009DF807109DF8062042EA01223280034614
:104BF000D4E903201C469047204603B0F0BD00BF17
:104C00005D414000F8B5044682680E46D0E90401D3
:104C10009047012802D003252846F8BD0C4F0023F9
:104C2000F2B22F212046B84705460028F4D1320AB7
:104C30002E2103462046B847064BC4F8846005463B
:104C400020469847D4E9033098472846F8BD00BF6E
:104C5000C53C4000293540002DE9F04706468468F0
:104C600082B00F46D0E9040190469946A04701283A
:104C700004D00324204602B0BDE8F0874446002556
:104C800014F0010AEBB24FEA540405F101052AD1F0
:104C9000082DF5D1154C00230DF107023946304699
:104CA0008DF80730A047044630B1D6E90330984765
:104CB000204602B0BDE8F0879DF807200C4C22EAA0
:104CC000080809FA0AF948EA0909034639465FFA69
:104CD00089F23046A0470446D6E903209047204693
:104CE00002B0BDE8F0879A46D4E700BF5D414000BE
:104CF000C53C40002DE9F0430646846883B08946F0
:104D0000D0E9040117469846A047012804D003249F
:104D1000204603B0BDE8F0833C46002514F00102B4
:104D20004FEA540403D10135082DF7D1154600236D
:104D300049460DF107020A4C8DF807303046A0476E
:104D40009DF80720174047FA05F588F800500446FB
:104D5000D6E903309847204603B0BDE8F08300BF92
:104D60005D41400038B5044683680D46D0E9040132
:104D70009847012802D00324204638BD032D10D8BF
:104D800084F87C5020460A4B98472B463421094D25
:104D90000322A8470346D4E903201C469047204637
:104DA00038BDD4E903300C249847204638BD00BFF5
:104DB00029354000594C4000F0B50446826883B064
:104DC0000D46D0E904019047012803D00324204672
:104DD00003B0F0BD0DF107033421094E0027032273
:104DE00020468DF80770B0479DF807202A700346CB
:104DF000D4E903201C469047204603B0F0BD00BF15
:104E0000F54C4000F0B50446836883B00D46D0E908
:104E100004019847012803D00324204603B0F0BDC5
:104E20000026114F8DF8066033460DF1060233213E
:104E300020468DF80760B84733460DF1070232214E
:104E40002046B8479DF806209DF8071002F007029B
:104E500042EAC1022A800346D4E903201C46904757
:104E6000204603B0F0BD00BF5D414000B1F5006FCA
:104E700070B522D283680D460446D0E904019847F4
:104E8000012802D00325284670BD0D4E05F007020B
:104E9000002333212046B0473221C5F3C702002347
:104EA0002046B047074AA567034620461D4690475F
:104EB000D4E903309847284670BD0125284670BDC7
:104EC000C53C400029354000F0B50446836883B0F6
:104ED0000D46D0E904019847012803D00324204659
:104EE00003B0F0BD0026114F8DF8066033460DF17A
:104EF0000602312120468DF80760B84733460DF190
:104F0000070230212046B8479DF806209DF807107B
:104F100002F0070242EAC1022A800346D4E90320D4
:104F20001C469047204603B0F0BD00BF5D414000E5
:104F300070B50446836884B0D0E90401984701281D
:104F400002D0032004B070BD00250DF106022C4EE6
:104F50008DF806502B4635212046B0479DF8063087
:104F6000C4F880300DF10A01264BADF80A502046F6
:104F70009847BDF80A30C4F8843003A9224BADF835
:104F80000C5020469847BDF80C30A3670DF10E0178
:104F90001E4BADF80E5020469847BDF80E306367A3
:104FA0000DF107011A4B8DF80750204698479DF8E0
:104FB000073084F87C3002AA2B461B2120468DF84E
:104FC0000850B0479DF80830C4F8943065212B464E
:104FD0000DF1090220468DF80950B0479DF80930BF
:104FE0000C4AC3F3021384F89830204690472046B9
:104FF000094B9847D4E903309847284604B070BD60
:105000005D414000A14B4000054E4000C94E4000AC
:10501000B94D40005D3E400029354000B1F5006FBC
:1050200070B522D283680D460446D0E90401984742
:10503000012802D00325284670BD0D4E05F0070259
:10504000002331212046B0473021C5F3C702002399
:105050002046B047074A6567034620461D469047ED
:10506000D4E903309847284670BD0125284670BD15
:10507000C53C40002935400070B5044683680D46A4
:10508000D0E904019847012802D00324204670BDCE
:105090002A464221064E00232046B047034684F8A4
:1050A0009C50D4E903201C469047204670BD00BFA9
:1050B000C53C40002DE9F0412DED028B044683688C
:1050C000D0E90401B0EE408A9847012805D0BDEC34
:1050D000028B03252846BDE8F08194F8707084EDBA
:1050E000198A022F0DD0012F15D0002F0CBF0025DB
:1050F0000225D4E903309847BDEC028B2846BDE871
:10510000F081FCEEC87AA36917EE901A04F118003A
:1051100098470546EDE7DFF8A0800323FF223946D4
:105120002046C047DFED217AB4EEE78AF1EE10FAAF
:105130000546DEDD0223002206212046C047B5EEEB
:10514000C08AF1EE10FA40EA050606DDF7EE007AB5
:10515000B4EEE78AF1EE10FA26D4FCEEC87A17EE28
:10516000902A222A17D9D7B2C2F307253A4602233A
:1051700000212046C0472A46074602230121204637
:10518000C04703230546FF2200212046C0473E4377
:1051900035430543ADE7064B03EB8203D7B253F823
:1051A000043C63660025E1E7024BFAE700000034A7
:1051B000E8D041009D86803FC53C400038B504469C
:1051C00082680D46D0E904019047012801D00320F0
:1051D00038BD636E2B60D4E903309847002038BD9A
:1051E00030B52DED028B0446826883B00D46D0E9C0
:1051F00004019047012804D0032003B0BDEC028BCA
:1052000030BD94F87030AB421CD09FED178A174B1D
:105210008DED018A01A920469847DFED157A9DEDB5
:10522000017AB4EEE77AF1EE10FA13DC84F87050EC
:1052300045B19DED010ADFED0E7AB4EEE70AF1EE1D
:1052400010FA0DDCD4E903309847002003B0BDEC20
:10525000028B30BD074BB0EE480A20469847E5E781
:10526000044B20469847EDE700000000BD51400088
:1052700000000034B550400070B5044683680D4608
:10528000D0E904019847012801D0032070BD05F042
:105290000103084E022219212046B047C5F34702F8
:1052A0001721054D00232046A847D4E9033098472D
:1052B000002070BD594C4000C53C400070B504460C
:1052C00083680D46D0E904019847012801D00320E6
:1052D00070BD024605F00103074E19212046B04774
:1052E000C5F347021821054D00232046A847D4E9FD
:1052F00003309847002070BD594C4000C53C400029
:10530000B4EEE00AF1EE10FA00F38D812DE9F04FD2
:105310002DED0A8BDFED116A90F89930DFED107AF0
:1053200030EEC07A012B46FEA77AF4EEC77AF1EE92
:1053300010FA836885B00446D0E90401B0EE608AB3
:10534000F0EE408A48BF37EE808A9847012809D09E
:10535000032005B0BDEC0A8BBDE8F08F86BB1A4177
:1053600052061E4194F89930C4ED328A012B84ED27
:10537000338A00F0AD819FEDBA7B4FF4C063B0EE8D
:1053800047BAF0EE67BA9FEDB87B0CEE103AB0EE7C
:1053900047AAF0EE67AABA4EBA4D18EE900AB04787
:1053A000024618EE100A17468846B04702460B46DA
:1053B000D4F8B40043EC192BB04782468B465246D2
:1053C00041465B463846A847AF4EA9A3D3E9002320
:1053D000B047AE4BAE4E41EC100B984748EC187BF3
:1053E00059EC108BAB4B10EE100A00224946B04727
:1053F00018B1DFF8A0924FF0000800230DF10F0262
:10540000A54E8DF80F3043212046B0479DF80F0080
:10541000A24BA34FA34E984742464B46B847A24BD8
:105420009847A24BC1B22046984791A3D3E90023E5
:1054300040464946B04752465B46B847B0EE480A38
:10544000F0EE680A82468B464BEC11AB984B9847BE
:10545000984BB0EE408AF0EE608A1CEE100A984736
:1054600059EC1B8B53EC1A2BA847934B0022A847EF
:105470004B461BEE102AB04752465B46B847B0EE8B
:10548000490AF0EE690A41EC110B8C4B7E4E9847AD
:10549000B0EE481AF0EE681A854B984751EC180B9D
:1054A0008DED000B52465B46A8474B461BEE102A7B
:1054B000B04741EC180B41EC100B8149744E884702
:1054C00059EC108B10EE102A4B4651EC180BA847E4
:1054D00021F00043194668A3D3E90023B047002810
:1054E00040F0A380B0EE480AF0EE680A674B6C4EBD
:1054F000984753EC1A2B51EC100BB0476A4B984766
:10550000074652465B46DDE90001A8475E4E53EC74
:105510001B2BB0475D4B5E4E41EC100B41EC180B62
:10552000984759EC108B10EE102A4B4651EC180B93
:10553000A84721F0004319464FA3D3E90023B04701
:10554000002800F082804046494653EC1A2B544E06
:10555000B047554B514E984700903846B04753ECF2
:105560001A2BA8474F4E53EC1B2BB04752465B46B5
:105570004B4EB047494E804600988946B04753ECA1
:105580001A2BA847474E464D53EC1B2BB0475B46A2
:105590005246A84794F89930012B05460E4600F074
:1055A000A780009A4FEA970B12F003004FEA92038C
:1055B00007F00307C4E9377312BFC0F1040003F119
:1055C000FF33C4F8E0303F4FC4F8EC004946C4F85C
:1055D000D0B04046B847034631462846C4F8C030EC
:1055E000B847C4F8C400384B594620469847D4F809
:1055F000E010364B2046984794F89930D4F8E020D4
:10560000D4F8D010D3B1D4F89430521A02FB03333B
:105610005B00E365D4E903309847002005B0BDEC9A
:105620000A8BBDE8F08F1120704753EC1A2B4046CF
:105630004946B8471C4B9847074662E7D4F8943070
:10564000521A02FB03339B00E3E71D4BB0EE480AFE
:10565000F0EE680A984751EC100B76E7AFF3008044
:105660000000000063567A3F0000000000000000C8
:1056700000000040CAC0E33F000000E0E2361A3FED
:10568000F554410035524100F9574100D13C4100E9
:10569000895A41000000F0BF5D414000B154410013
:1056A00039524100A5554100055B41007950400049
:1056B000D93D4100D15441000000F03F293E410056
:1056C000D13B4100455B410079524000BD52400052
:1056D0009FED117BB0EE47BAF0EE67BA9FED107BFD
:1056E000C0230CEE103AB0EE47AAF0EE67AA52E6DD
:1056F000009BC4F8E03040464946DFF82C80C4F8EF
:10570000D070C047034631462846C4F8C030C04771
:10571000BB46C4F8C40066E7000000006356AA3F19
:105720000000000000001040455B410080ED2D0AA4
:10573000D0ED330A90ED320A004B18470153400078
:1057400070B5044682680E46D0E9040190470128EE
:1057500002D00325284670BD134D024633460F2163
:105760002046A84705460028F4D1104B84F89960DC
:105770002046984705460028ECD1012E0CBF062292
:105780000322C4F894201B210346094E2046B0474B
:10579000D4ED330A94ED320A064B20469847D4E9FB
:1057A00003309847284670BD594C40005D3E40008C
:1057B000C53C4000015340002DE9F041044682B051
:1057C0008368754FD0E9040198477449744AC4F856
:1057D000C410002500234FF001084FF4C06140457C
:1057E0006366C4F8B430C4F8C030C4F88830C4F874
:1057F0008C30C4F89030C4F8AC30C4F8C830C4F869
:10580000CC30A165C4F8982029464FF02002C4E9A5
:105810001455C4E91D55C4E92055C4E92855E56669
:1058200084F8705084F8F050E56584F87C50C4F832
:10583000945084F89C50C4F8A850C4F8B050C4F8F0
:10584000D050C4F86080C4F8688004F58270C4F851
:10585000D450C4E93655C4E93855C4E93A55C4E9C9
:105860003D55C4E93F550CBF2E460326B84729468F
:10587000202204F59270B8472946202204F5A27030
:10588000B847294604F5B2702022B847002E38D117
:10589000E36C2068434D444F3146984731462046DB
:1058A000A84741462046A847236C054664209847F0
:1058B0000DF10602414620468DF806608DF807601E
:1058C000B8470DF1070231462046B8479DF806302B
:1058D000FF2B09D000236360D4E9033098470125EA
:1058E000284602B0BDE8F0819DF80770002FF1D185
:1058F00065B1D4E9033067609847284602B0BDE837
:10590000F0813546284602B0BDE8F081274BC4F847
:1059100004802046984705460028EAD1244B0F21F1
:1059200020469847234B20469847054620B1D4E9A6
:10593000033066609847D3E71F4B204698470546DB
:105940000028D6D11D4B20469847064628B16560F1
:10595000D4E9033035469847C2E7D4ED310A94EDD7
:10596000300A174B2046984705460028DFD10146EC
:10597000144B20469847054638B9E36C206801214E
:105980009847D4E903309847AAE700236360D4E935
:1059900003309847A4E700BF1569410052061E4135
:1059A00003000100993C4000153A4000693B40006B
:1059B000454840004543400019494000314F4000F0
:1059C000015340004157400090F89930012B11D00D
:1059D00010B4D0F89420C36DB3FBF2F30B60D0F891
:1059E000DC40D0F8EC201B1B9B1A00205DF8044B18
:1059F0000B607047C36DD0F89420B3FBF2F35B08E3
:105A00000B600020704700BF90F899300B700020A9
:105A1000704700BF032907D910B50A46034C00237D
:105A20002C21A047002010BD12207047C53C40002B
:105A300070B5002482B00D462346064E8DF807400F
:105A40000DF107022C21B0479DF807302B7020463E
:105A500002B070BD5D414000CB1E012B10D870B567
:105A60000B460C46074E702265210546B04700B133
:105A700070BD85F898402846034BBDE87040184734
:105A800014207047594C40005D3E400070B5002521
:105A900082B00C460DF10702064E8DF807502B46DA
:105AA0006521B0479DF807202846C2F302122270F4
:105AB00002B070BD5D414000032907D810B50B4608
:105AC000034C60227521A047002010BD15207047AF
:105AD000594C400070B5002582B00C460DF107020C
